:020000040800F2
:1000000000C00020611D0008A1180008A918000800
:10001000B1180008B9180008C11800080000000055
:10002000000000000000000000000000C9180008E7
:10003000D518000800000000E1180008ED180008BD
:10004000A91D0008A91D0008A91D0008A91D000878
:10005000A91D0008A91D0008F9180008A91D00081D
:10006000A91D0008A91D0008A91D0008A91D000858
:10007000A91D0008A91D0008A91D0008A91D000848
:10008000A91D0008A91D0008A91D0008A91D000838
:10009000A91D0008A91D0008A91D0008A91D000828
:1000A000A91D0008A91D0008A91D0008A91D000818
:1000B000A91D0008A91D0008A91D0008A91D000808
:1000C000A91D0008A91D0008A91D0008091900089C
:1000D000A91D00081D190008A91D0008A91D000878
:1000E000A91D0008A91D0008A91D0008A91D0008D8
:1000F000A91D0008A91D0008A91D0008A91D0008C8
:10010000A91D0008A91D0008A91D0008A91D0008B7
:10011000A91D0008A91D0008391900084D1900087B
:10012000A91D0008A91D0008A91D0008A91D000897
:1001300000000000000000000000000000000000BF
:1001400000000000000000000000000000000000AF
:10015000000000000000000000000000000000009F
:10016000000000000000000000000000000000008F
:10017000000000000000000000000000000000007F
:10018000000000000000000000000000000000006F
:10019000000000000000000000000000000000005F
:1001A000000000000000000000000000000000004F
:1001B000000000000000000000000000000000003F
:1001C000000000000000000000000000000000002F
:1001D000000000000000000000000000000000001F
:0401E0005FF8E0F1F3
:1001E40010B5054C237833B9044B13B10448AFF36D
:1001F40000800123237010BD600000200000000077
:100204002459000808B5034B1BB103490348AFF355
:10021400008008BD0000000064000020245900088C
:10022400034613F8012B002AFBD1181A0138704732
:1002340080B500AF01F0B8FD00F011F800F038F916
:1002440000F0E2F800F074F800F0A8F800F006F905
:1002540000F04AF800F0CCF90023184680BD80B5C0
:1002640090B000AF07F1180328220021184604F0CB
:1002740033FF3B1D00221A605A609A60DA601A61EB
:100284000123BB614FF48033FB6100233B620123F4
:10029400BB6202237B634FF48033BB634FF4E013F0
:1002A400FB6307F11803184602F0AEFA0346002B6D
:1002B40001D000F097F90F237B600223BB60002379
:1002C400FB604FF480633B6100237B613B1D022193
:1002D400184602F01BFD0346002B01D000F082F902
:1002E40000BF4037BD4680BD80B500AF002201216C
:1002F400232001F064FE232001F07DFE0022012171
:10030400252001F05CFE252001F075FE002201216C
:10031400362001F054FE362001F06DFE002201214A
:10032400062001F04CFE062001F065FE00BF80BDF2
:1003340080B500AF174B184A1A60164B4FF48272FF
:100344005A60144B00229A60124B0022DA60114B5F
:1003540002221A610F4B01225A610E4B4FF40072B4
:100364009A610C4B1022DA610A4B00221A62094B83
:1003740000225A62074B00229A62064B0A22DA6272
:10038400044802F081FE0346002B01D000F02AF954
:1003940000BF80BD7C0000200030014080B582B0E9
:1003A40000AF3B4600221A605A60154B154A1A608A
:1003B400134B40F2CF225A60114B00229A60104B2B
:1003C4006322DA600E4B80229A610D4803F0F5FC3B
:1003D4000346002B01D000F005F900233B60002305
:1003E4007B603B461946064803F030FF0346002B6A
:1003F40001D000F0F7F800BF0837BD4680BD00BF4C
:10040400D40000200010004080B500AF114B124A08
:100414001A60104B4FF4E1325A600E4B00229A607E
:100424000C4B0022DA600B4B00221A61094B0C22A0
:100434005A61084B00229A61064B0022DA61054892
:1004440003F082FF0346002B01D000F0CBF800BF7D
:1004540080BD00BF1C0100200038014080B500AF02
:10046400114B124A1A60104B4FF4E1325A600E4B92
:1004740000229A600C4B0022DA600B4B00221A61B6
:10048400094B0C225A61084B00229A61064B002248
:10049400DA61054803F058FF0346002B01D000F051
:1004A400A1F800BF80BD00BF6401002000480040E7
:1004B40080B588B000AF07F1100300221A605A60BB
:1004C4009A60DA60354B9B69344A43F020039361A8
:1004D400324B9B6903F02003FB60FB682F4B9B6945
:1004E4002E4A43F0040393612C4B9B6903F00403ED
:1004F400BB60BB68294B9B69284A43F01003936196
:10050400264B9B6903F010037B607B68234B9B693C
:10051400224A43F008039361204B9B6903F00803CC
:100524003B603B6800220E211D4802F023F90022A3
:1005340010211C4802F01EF901222021194802F062
:1005440019F90E233B6101237B610023BB61022364
:10055400FB6107F110031946114801F0ABFE30238B
:100564003B6101237B610023BB610323FB6107F132
:10057400100319460B4801F09DFE01233B610A4B11
:100584007B610123BB6107F110031946074801F0A1
:1005940091FE00BF2037BD4680BD00BF0010024061
:1005A400000801400010014000002110000C01402F
:1005B40080B582B000AF78607B681B68074A9342BD
:1005C40001D101F007FC7B681B68054A934201D105
:1005D40000F08CF800BF0837BD4680BD0014004011
:1005E4000010004080B400AF72B600BF00BFFDE74A
:1005F40080B58AB000AF1C4801F02DFA1B491A4897
:1006040001F012FB18491A4800F044FE1949184831
:1006140000F03AF9184803F01FFC002387F827304C
:100624000CE097F8273028333B4497F8272003F849
:10063400242C97F82730013387F8273097F8273090
:100644001F2BEED90D4B1B78012BFBD1094B1B78CB
:10065400002B04D13B1D1946054800F009FD074B4A
:1006640000221A70EEE700BFAC0100203C590008DC
:10067400C0010020F0010020D4000020F10100207E
:1006840080B586B000AF78600B46FB707B681B6852
:100694001B687B617B681B68DB683B617B6903F0DB
:1006A4002003002B10D03B6903F02003002B0BD058
:1006B4007B681B685B68FB60FB68FB72FA78FB7AFB
:1006C4001146184600F004F800BF1837BD4680BD37
:1006D40080B483B000AF03460A46FB711346BB7176
:1006E40000BF0C37BD4680BC7047000080B400AF2B
:1006F4000A4B1B8801339AB2084B1A80074B1B889C
:10070400B3F57A7F05D3054B00221A80044B0122EE
:100714001A7000BFBD4680BC704700BFF2010020C4
:10072400F101002080B582B000AF0346FB80FB8856
:10073400012B02D1034800F0E3FD00BF0837BD469A
:1007440080BD00BFC001002080B500AF044905484A
:1007540001F062F90449054800F02CF800BF80BD9F
:100764001C010020AC0100207C000020C0010020FE
:1007740080B582B000AF78607B680433184600F01F
:100784009BFE7B6818460837BD4680BD80B500AF28
:100794000248FFF7EDFF00BF80BD00BFAC010020A1
:1007A40080B500AFFFF7D0FF80BD80B500AFFFF785
:1007B400EDFF80BD80B584B000AF786039607B68A0
:1007C4003A681A607B6800221A717B6800229A607A
:1007D4007B6820221A737B68FF2283F82D20002374
:1007E400FB7307F10F031946786800F00BF804490E
:1007F400786800F05DFD7B6818461037BD4680BD03
:100804007059000880B582B000AF786039603B68E9
:100814001B78012B14BF01230023DBB21A462021CD
:10082400034801F0A7FF00BF0837BD4680BD00BFE5
:100834000010014080B582B000AF786039603B6839
:100844001B78012B01D10C4B00E00C4B1A460C49D0
:10085400786800F02DFD3B681B78012B01D1012342
:1008640000E000231A461021064801F083FF00BF70
:100874000837BD4680BD00BF845900088C59000864
:10088400945900080010014080B582B000AF786030
:1008940039600D49786800F00BFD3B681A787B6875
:1008A40083F82D20786800F011F83968786800F032
:1008B400F1FA0121786800F0ADFA786800F0EAF8FE
:1008C40000BF0837BD4680BDB459000880B588B064
:1008D40000AF78605C49786800F0EAFC01237B7320
:1008E40007F10D0319467868FFF78CFF0123BB73EA
:1008F40007F10E0319467868FFF79CFF0823FB7382
:1009040007F10F03514A5249786800F0C1FB3F23B5
:100914003B7407F110034F4A4D49786800F0B8FB67
:100924003F237B7407F111034B4A4949786800F06F
:10093400AFFB0323BB7407F11203484A44497868A8
:1009440000F0A6FB0323FB7407F11303444A404958
:10095400786800F09DFB00233B7507F11403414ABE
:100964003B49786800F094FB0E237B7507F115036F
:100974003D4A3749786800F08BFB7F23BB7507F14C
:1009840016033A4A3249786800F082FB7B680C33DC
:10099400374A2F49786800F07BFB0023FB7507F189
:1009A4001703344A2A49786800F072FB00233B7627
:1009B40007F11803304A2649786800F069FB0023E0
:1009C4007B7607F119032D4A2149786800F060FB12
:1009D4000023BB7607F11A03294A1D49786800F001
:1009E40057FB0023FB7607F11B03264A1849786856
:1009F40000F04EFB11233B7707F11C03224A1449F4
:100A0400786800F045FB00237B7707F11D031F4A3C
:100A14000F49786800F03CFB0023BB7707F11E0305
:100A24001B4A0B49786800F033FB786800F0D4FB6C
:100A34000023FB7707F11F0319467868FFF7FAFED6
:100A440000BF2037BD4680BDD8590008285C000887
:100A54003A5C0008295C00082A5C00082B5C00084A
:100A64002C5C00082D5C00082E5C00082F5C00083C
:100A7400305C0008315C0008325C0008335C00081C
:100A8400345C0008355C0008365C0008375C0008FC
:100A9400385C000880B58CB000AF7860002387F81C
:100AA4002E3000237B7707F11D03C74AC7497868B6
:100AB40000F0EEFA0346194697F82E305A1C87F8D0
:100AC4002E2030333B440A4603F8242C0023BB7702
:100AD40007F11E03BE4ABD49786800F0D9FA0346FF
:100AE400194697F82E305A1C87F82E2030333B4491
:100AF4000A4603F8242C0023FB7707F11F03B54AA9
:100B0400B249786800F0C4FA0346194697F82E30C3
:100B14005A1C87F82E2030333B440A4603F8242C11
:100B2400002387F8203007F12003AB4AA7497868EF
:100B340000F0AEFA0346194697F82E305A1C87F88F
:100B44002E2030333B440A4603F8242C002387F834
:100B5400213007F12103A14A9C49786800F098FAF2
:100B64000346194697F82E305A1C87F82E20303346
:100B74003B440A4603F8242C002387F8223007F16B
:100B84002203974A9149786800F082FA034619468D
:100B940097F82E305A1C87F82E2030333B440A46EF
:100BA40003F8242C002387F8233007F123038D4A0C
:100BB4008649786800F06CFA0346194697F82E3097
:100BC4005A1C87F82E2030333B440A4603F8242C61
:100BD400002387F8243007F12403834A7B4978688B
:100BE40000F056FA0346194697F82E305A1C87F837
:100BF4002E2030333B440A4603F8242C002387F884
:100C0400253007F12503794A7049786800F040FAE5
:100C14000346194697F82E305A1C87F82E20303395
:100C24003B440A4603F8242C002387F8263007F1B6
:100C340026036F4A6549786800F02AFA0346194684
:100C440097F82E305A1C87F82E2030333B440A463E
:100C540003F8242C002387F8273007F12703654A7B
:100C64005A49786800F014FA0346194697F82E306A
:100C74005A1C87F82E2030333B440A4603F8242CB0
:100C8400002387F8283007F128035B4A4F49786826
:100C940000F0FEF90346194697F82E305A1C87F8DF
:100CA4002E2030333B440A4603F8242C002387F8D3
:100CB400293007F12903514A4449786800F0E8F9DA
:100CC4000346194697F82E305A1C87F82E203033E5
:100CD4003B440A4603F8242C002387F82A3007F102
:100CE4002A03474A3949786800F0D2F9034619467D
:100CF40097F82E305A1C87F82E2030333B440A468E
:100D040003F8242C002387F82B3007F12B033D4AEA
:100D14002E49786800F0BCF90346194697F82E303E
:100D24005A1C87F82E2030333B440A4603F8242CFF
:100D3400002387F82C3007F12C03334A23497868C1
:100D440000F0A6F90346194697F82E305A1C87F886
:100D54002E2030333B440A4603F8242C002387F822
:100D64002D3007F12D03294A1849786800F090F9CD
:100D74000346194697F82E305A1C87F82E20303334
:100D84003B440A4603F8242C002387F82F300FE055
:100D940097F82F3030333B4413F8243C1A461C494F
:100DA400786800F085FA97F82F30013387F82F30F0
:100DB40097F82F2097F82E309A42E9D300BF00BF4E
:100DC4003037BD4680BD00BF285C0008395C000890
:100DD400295C00082A5C00082B5C00082C5C0008D5
:100DE4002D5C00082E5C00082F5C0008305C0008B5
:100DF400315C0008325C0008335C0008345C000895
:100E0400355C0008365C0008375C0008385C000874
:100E1400EC59000880B584B000AF78600B46FB70D5
:100E2400FB78012B01D1154B00E0154B1A461549EF
:100E3400786800F03DFA0023FB7307F10F03124AB0
:100E44001249786800F024F90346BB73FB78012B40
:100E540004D1BB7B43F00203DBB203E0BB7B23F092
:100E64000203DBB2BB7307F10E03074A0849786833
:100E740000F00EF900BF1037BD4680BD845900084C
:100E84008C590008085A0008285C0008395C0008DE
:100E94003A5C000880B584B000AF78603960002304
:100EA400BB7307F10E03104A1049786800F0F0F89C
:100EB4000346FB733B681B78012B04D1FB7B43F097
:100EC4000103DBB203E0FB7B23F00103DBB27B73A2
:100ED40007F10D03044A0649786800F0D9F800BF09
:100EE4001037BD4680BD00BF285C0008395C00088F
:100EF4003A5C000880B586B002AF78603960A02300
:100F04003B730023FB7201237B7307F10D03194626
:100F14007868FFF777FC7B68186807F10B0207F124
:100F24000C014FF47A730093012302F08EFB034605
:100F3400FB73FB7B002B08D0FB7B104A52F8233059
:100F44001A460F49786800F0B3F97B6818687B6823
:100F54001B7B1A464FF47A73396802F019F9034679
:100F6400FB730023BB7307F10E0319467868FFF780
:100F740049FCFB7A18461037BD4680BD185C000852
:100F8400285A000880B586B002AF786039606123C2
:100F94003B730023FB7201237B7307F10D03194696
:100FA4007868FFF72FFC7B68186807F10B0207F1DC
:100FB4000C014FF47A730093012302F046FB0346BD
:100FC400FB73FB7B002B08D0FB7B104A52F82330C9
:100FD4001A460F49786800F06BF97B6818687B68DB
:100FE4001B7B1A464FF47A73396802F015FA0346EC
:100FF400FB730023BB7307F10E0319467868FFF7F0
:1010040001FCFB7A18461037BD4680BD185C000809
:10101400285A000880B584B000AF78603960396818
:101024007868FFF7AFFF0346FB7300237B7307F178
:101034000D030C4A0C49786800F02AF80346BB7388
:10104400BB7B43F04003DBB23B7307F10C03054A5F
:101054000649786800F01CF80346BB7300BF1037DC
:10106400BD4680BD2F5C0008395C00083A5C00086E
:1010740080B584B000AF7860396039687868FFF76C
:1010840039FF0346FB7300BF1037BD4680BD000027
:1010940080B588B002AFF860B9607A603B60BB6825
:1010A4001B78002B01D1454A00E0454A7B681B7838
:1010B40019463B681B7800930B464249F86800F0D8
:1010C400F7F8BB681B78002B01D1002200E0202236
:1010D4007B681B781343DBB23B750023FB7401234D
:1010E4007B7507F115031946F868FFF78BFBFB685E
:1010F400186807F1130207F114014FF47A7300938F
:10110400012302F0A2FA0346FB75FB7D002B08D0F5
:10111400FB7D2D4A52F823301A462C49F86800F01A
:10112400C7F83B681B78BB74BB681B78002B0BD1DA
:10113400FB68186807F112014FF47A73012202F078
:101144006BF90346FB750AE0FB68186807F11201A6
:101154004FF47A73012202F01BF80346FB75002357
:10116400BB7507F116031946F868FFF74BFBFB7DC7
:10117400002B0DD0BB681B78002B09D1FB7D124AD4
:1011840052F823301A461249F86800F091F80FE03B
:10119400FB7D002B0CD0BB681B78012B08D1FB7D99
:1011A400094A52F823301A460A49F86800F080F8D0
:1011B400BB7C18461837BD4680BD00BF6C5A00087A
:1011C400745A00087C5A0008185C0008285A000861
:1011D400C45A0008005B000880B582B000AF786094
:1011E4000549786800F00CF80449786800F008F8BC
:1011F40000BF0837BD4680BD3B5C00083C5C00086E
:1012040080B586B002AF786039603B681B78002BEC
:1012140001D11B4B00E01B4B1A461B49786800F0B8
:1012240047F83B681B78002B01D1E22300E0E1235F
:10123400BB7300237B737B68186807F10D0207F109
:101244000E014FF47A730093012302F0FEF9034672
:10125400FB73FB7B002B0ED03B681B78002B01D16A
:10126400074A00E0074AFB7B084951F82330084944
:10127400786800F01DF800BF1037BD4680BD00BF80
:10128400405B00084C5B0008585B0008185C0008D1
:10129400805B000880B483B000AF786039607B68FD
:1012A4003A689A6000BF0C37BD4680BC70470000A6
:1012B4000EB490B584B000AF78607B689B68002B57
:1012C40014D007F12003FB60FA68F9690B4803F0B6
:1012D400F9FE7B689C680948FEF7A2FF03469BB2AF
:1012E4001A460649204600F03EFC00E000BF1037D5
:1012F400BD46BDE8904003B0704700BFF401002034
:1013040080B582B000AF78607B6893F82D30002BF5
:1013140003D1786800F008F802E0786800F044F837
:1013240000BF0837BD4680BD80B584B000AF78608B
:101334000023FB7307F10F03174A18497868FFF776
:10134400A7FE0346BB73BB7B03F02003002B0BD02B
:10135400134B1B680121184601F024FABB7B43F0B0
:101364002003DBB2BB730BE00D4B1B680122012190
:10137400184601F0FFF9BB7B43F01003DBB2BB73EB
:1013840007F10E03044A07497868FFF781FE00BF9E
:101394001037BD4680BD00BF2F5C0008395C0008D3
:1013A400000000203A5C000880B584B000AF78608B
:1013B4007B680D3319467868FFF72CFE0023FB7316
:1013C40007F10F030B4A0C497868FFF761FE0346E7
:1013D400BB73BB7B43F04003DBB2BB7307F10E036B
:1013E400044A06497868FFF753FE00BF1037BD462C
:1013F40080BD00BF2F5C0008395C00083A5C00081F
:1014040080B582B000AF786039607B681B88002BA0
:1014140003D17B689B68002B01D000231DE03B684F
:101424001B881049184603F05BFD03461A467B6887
:101434009A607B689B68002B01D100230DE03B6818
:101444001A887B681A807B6800225A807B68002295
:101454009A807B680022DA80012318460837BD464B
:1014640080BD00BF6A5C000880B582B000AF7860C0
:101474007B6800221A807B6800225A807B680022E5
:101484009A807B680022DA807B6800229A607B68FD
:101494001B88002B09D07B681B880649184603F07B
:1014A4001FFD03461A467B689A607B681846083716
:1014B400BD4680BD6A5C000880B582B000AF78602C
:1014C4007B689B68002B01D17B680CE07B689B6880
:1014D400002B04D07B689B68184603F0F7FC7B68FC
:1014E40000229A607B6818460837BD4680BD00001C
:1014F40080B485B000AF154B9B69144A43F00103D7
:101504009361124B9B6903F00103BB60BB680F4BF3
:10151400DB690E4A43F08053D3610C4BDB6903F063
:1015240080537B607B680A4B5B68FB60FB6823F03D
:10153400E063FB60FB6843F00073FB60044AFB68F4
:10154400536000BF1437BD4680BC70470010024092
:101554000000014080B588B000AF786007F1100347
:1015640000221A605A609A60DA607B681B681B4A22
:1015740093422FD11A4B9B69194A43F480539361C8
:10158400174B9B6903F48053FB60FB68144B9B6906
:10159400134A43F004039361114B9B6903F0040362
:1015A400BB60BB68A0233B6102237B610323FB6117
:1015B40007F1100319460B4800F07CFE40233B6101
:1015C40000237B610023BB6107F110031946054822
:1015D40000F070FE00BF2037BD4680BD00300140E2
:1015E400001002400008014080B485B000AF78606C
:1015F4007B681B68094A93420BD1094BDB69084A93
:1016040043F01003D361064BDB6903F01003FB6066
:10161400FB6800BF1437BD4680BC70470010004013
:101624000010024080B58AB000AF786007F118035B
:1016340000221A605A609A60DA607B681B68384A34
:10164400934232D1374B9B69364A43F480439361CA
:10165400344B9B6903F480437B617B69314B9B6909
:10166400304A43F0040393612E4B9B6903F0040357
:101674003B613B694FF40073BB610223FB610323AD
:101684007B6207F118031946274800F013FE4FF454
:101694008063BB610023FB6100233B6207F11803F5
:1016A4001946214800F006FE36E07B681B681F4A95
:1016B400934231D11B4BDB691A4A43F48023D36133
:1016C400184BDB6903F48023FB60FB68154B9B69B3
:1016D400144A43F008039361124B9B6903F0080317
:1016E400BB60BB684FF48063BB610223FB610323CF
:1016F4007B6207F1180319460D4800F0DBFD4FF437
:101704000063BB610023FB6100233B6207F1180304
:101714001946074800F0CEFD00BF2837BD4680BDFE
:101724000038014000100240000801400048004019
:10173400000C014080B582B000AF78607B681B6804
:10174400124A93420ED1124B9B69114A23F48043EF
:1017540093614FF4C0610F4800F040FF252000F072
:1017640058FC0FE07B681B680B4A93420AD1084B74
:10177400DB69074A23F48023D3614FF440610748AF
:1017840000F02CFF00BF0837BD4680BD0038014083
:10179400001002400008014000480040000C0140D5
:1017A40080B58EB000AF78600023FB620023BB627B
:1017B400002387F83330344BDB69334A43F020038A
:1017C400D361314BDB6903F02003FB60FB6807F155
:1017D400100207F114031146184601F007FC3B6A96
:1017E400FB62FB6A002B03D101F0D8FB786304E0B1
:1017F40001F0D4FB03465B007B637B6B234AA2FBB3
:1018040003239B0C013BBB62214B224A1A60204BF1
:1018140040F2E732DA601E4ABB6A53601C4B002276
:101824001A611B4B00229A60194B00229A611848D6
:1018340002F0C3FA034687F8333097F83330002BAD
:101844001BD1134802F008FB034687F8333097F89E
:101854003330002B11D1372000F0CDFB7B680F2BE8
:1018640008D800227968372000F0A9FB0A4A7B686F
:10187400136002E0012387F8333097F833301846B9
:101884003837BD4680BD00BF0010024083DE1B43D5
:10189400F4050020001400400800002080B400AFCC
:1018A40000BFFDE780B400AF00BFFDE780B400AF28
:1018B40000BFFDE780B400AF00BFFDE780B400AF18
:1018C40000BFFDE780B400AF00BFBD4680BC7047D9
:1018D40080B400AF00BFBD4680BC704780B400AF89
:1018E40000BFBD4680BC704780B400AF00BFBD469A
:1018F40080BC704780B500AF012000F06DFF00BFD1
:1019040080BD000080B500AF024802F047F800BF78
:1019140080BD00BF7C00002080B500AF01210448D9
:10192400FEF7AEFE024802F0B7FD00BF80BD00BF67
:101934001C01002080B500AF024802F0EDFA00BFA0
:1019440080BD00BFD400002080B500AF024802F083
:10195400E3FA00BF80BD00BFF405002080B400AFEF
:1019640001231846BD4680BC704780B582B000AFE5
:101974007860396003F00CFC034616221A604FF0BD
:10198400FF3318460837BD4680BD80B582B000AF2E
:1019940078604FF0FF317868FFF7E7FF00BFFDE79D
:1019A40080B586B000AF7860144A154BD31A7B61BA
:1019B4007B693B61134B1B68002B02D1114B124A0C
:1019C4001A60104B1A687B6813443A699A4207D22A
:1019D40003F0DEFB03460C221A604FF0FF3309E0EC
:1019E400084B1B68FB60074B1A687B681344054A65
:1019F4001360FB6818461837BD4680BD00C0002040
:101A0400000400003C060020900B002080B400AFCE
:101A140000BFBD4680BC704780B584B000AF78601D
:101A240039607B683A681A607B6804331846FFF7AC
:101A34001BFD7B6800221A747B6804333222FA810E
:101A440007F10E0211461846FFF7DAFC7B681846C8
:101A54001037BD4680BD80B582B000AF78607B682A
:101A64001B68184602F0C0FC7B681B684FF4E13227
:101A74005A607B681B6800229A607B681B6800229E
:101A8400DA607B681B6800221A617B681B680C2281
:101A94005A617B681B6800229A617B681B6800227C
:101AA400DA617B681B68184602F04EFC7B681B6891
:101AB4001B68DB687A681268126823F4834323F096
:101AC4004003D3607B681B681B685A697B681B688A
:101AD4001B6822F001025A617B6818687B68113325
:101AE4000122194602F0B2FC7B6801221A7400BF7D
:101AF4000837BD4680BD80B485B000AF78603960DA
:101B04007B681B68002B27D07B681B7C002B23D0B1
:101B14007B681B681B68DB6803F40053002B01D04F
:101B2400012300E00023FB73FB7B002B16D000BFD6
:101B34007B681B681B681B6803F08003802B14BF41
:101B440001230023DBB2002BF2D17B681B681B68E6
:101B54003A6812685A6002E000BF00E000BF143720
:101B6400BD4680BC704790B5ADF50B7D02AF07F55F
:101B74000873A3F50573186007F50873A3F50673D6
:101B8400196007F50873A3F21A231A8007F508737E
:101B9400A3F505731B681B68002B40D007F5087379
:101BA400A3F505731B681B7C002B38D007F508735D
:101BB400A3F5067307F1160407F1180107F5087277
:101BC400A2F50570BA1D00921B682246006800F059
:101BD40055F80023A7F81E3217E0B7F81E3207F5B0
:101BE4000872A2F50272D35CC7F8183207F50672C0
:101BF40007F50873A3F5057311461868FFF77BFF13
:101C0400B7F81E320133A7F81E3207F50873A3F2A2
:101C14000A231B88B7F81E229A42DED300E000BFD5
:101C240007F50977BD4690BD0EB480B585B000AF09
:101C340078607B681B68002B16D07B681B7C002BAC
:101C440012D007F12003FB60FA68F9690A4803F02F
:101C540039FA0948FEF7E4FA03469BB21A460649E4
:101C64007868FFF780FF00E000BF1437BD46BDE889
:101C7400804003B0704700BF4006002090B486B097
:101C840000AFF860B9607A603B607B6800221A801C
:101C94003B681B787E2B43D13B6A1B88013B3A6827
:101CA40013441B787F2B3BD10023FB8232E0FB8A59
:101CB4003A6813441B787B75FB8A002B1CD03B6A63
:101CC4001B885A1EFB8A9A4216D07B7D7D2B05D039
:101CD4007B7D7E2B02D07B7D7F2B0DD17B7D83F0A2
:101CE40020037B75BA687B681B88591C88B27968A5
:101CF400088013447D221A70787DBA687B681B883B
:101D0400591C8CB279680C80134402461A70FB8A01
:101D14000133FB823B6A1B88FA8A9A42C7D317E0D5
:101D240000237B820AE07B8A3A681A447B8AB9687A
:101D34000B4412781A707B8A01337B823B6A1B88BE
:101D44007A8A9A42EFD33B6A1A887B681A8000BF6A
:101D540000BF1837BD4690BC70470000FFF756FE21
:101D64000B480C490C4A002302E0D458C4500433F5
:101D7400C4188C42F9D3094A094C002301E01360CA
:101D84000432A242FBD303F009FAFEF751FA70477A
:101D94000000002060000020B85C00086000002003
:101DA400900B0020FEE7000080B500AF084B1B68D5
:101DB400074A43F010031360032000F0F5F80020F5
:101DC400FFF7EEFCFFF794FB0023184680BD00BF2D
:101DD4000020024080B400AF054B1B781A46054B27
:101DE4001B681344034A136000BFBD4680BC7047A0
:101DF4000C000020400A002080B400AF024B1B6896
:101E04001846BD4680BC7047400A002080B485B0A7
:101E140000AF78607B6803F00703FB600C4BDB6862
:101E2400BB60BA684FF6FF031340BB60FB681A023D
:101E3400BB68134343F0BF6343F40033BB60044AFD
:101E4400BB68D36000BF1437BD4680BC704700BF79
:101E540000ED00E080B400AF044BDB681B0A03F024
:101E640007031846BD4680BC704700BF00ED00E084
:101E740080B483B000AF0346FB7197F90730002BA1
:101E84000BDBFB7903F01F02064997F907305B0966
:101E9400012000FA02F241F8232000BF0C37BD46AE
:101EA40080BC704700E100E080B483B000AF03461B
:101EB400FB7197F90730002B12DBFB7903F01F024B
:101EC4000A4997F907305B09012000FA02F220332E
:101ED40041F82320BFF34F8F00BFBFF36F8F00BFC4
:101EE40000BF0C37BD4680BC704700BF00E100E076
:101EF40080B483B000AF03463960FB7197F90730B3
:101F0400002B0ADB3B68DAB20C4997F9073012015F
:101F1400D2B20B4483F800230AE03B68DAB20849E2
:101F2400FB7903F00F03043B1201D2B20B441A767F
:101F340000BF0C37BD4680BC704700BF00E100E025
:101F440000ED00E080B489B000AFF860B9607A6059
:101F5400FB6803F00703FB61FB69C3F10703042B70
:101F640028BF0423BB61FB690433062B02D9FB6938
:101F7400033B00E000237B614FF0FF32BB6902FAB0
:101F840003F3DA43BB681A407B699A404FF0FF3190
:101F94007B6901FA03F3D9437B680B40134318466A
:101FA4002437BD4680BC704780B582B000AF7860EE
:101FB4007868FFF72BFF00BF0837BD4680BD80B5AA
:101FC40086B000AF0346B9607A60FB7300237B617F
:101FD400FFF740FF78617A68B9687869FFF7B2FF64
:101FE400024697F90F3011461846FFF781FF00BFEC
:101FF4001837BD4680BD80B582B000AF0346FB7183
:1020040097F907301846FFF733FF00BF0837BD467E
:1020140080BD80B582B000AF0346FB7197F90730ED
:102024001846FFF741FF00BF0837BD4680BD80B4A6
:1020340085B000AF78600023FB737B6893F8213090
:10204400DBB2022B08D07B6804229A637B680022EF
:1020540083F82020012320E07B681B681A687B68D2
:102064001B6822F00E021A607B681B681A687B6882
:102074001B6822F001021A607B681A6C7B68DB6BB8
:10208400012101FA02F25A607B68012283F82120BF
:102094007B68002283F82020FB7B18461437BD465A
:1020A40080BC704780B584B000AF78600023FB73B8
:1020B4007B6893F82130DBB2022B05D07B680422C5
:1020C4009A630123FB73D6E07B681B681A687B68FC
:1020D4001B6822F00E021A607B681B681A687B6812
:1020E4001B6822F001021A607B681B681A46644B65
:1020F4009A4258D97B681B68624A93424FD07B68E6
:102104001B68614A934248D07B681B685F4A9342CC
:1021140040D07B681B685E4A934238D07B681B685A
:102124005C4A934230D07B681B685B4A934228D058
:102134007B681B68524A934220D07B681B68574ACD
:10214400934219D07B681B68554A934212D07B682E
:102154001B68544A93420AD07B681B68524A9342D4
:1021640002D14FF480531BE04FF4803318E04FF456
:10217400807315E0102313E0012311E04FF0807306
:102184000EE04FF480130BE04FF4803308E04FF47B
:10219400805305E04FF4807302E0102300E0012334
:1021A400424A536057E07B681B68364A93424FD0DB
:1021B4007B681B68344A934248D07B681B68334A67
:1021C400934240D07B681B68314A934238D07B6885
:1021D4001B68304A934230D07B681B682E4A934276
:1021E40028D07B681B68264A934220D07B681B68F2
:1021F4002A4A934219D07B681B68294A934212D019
:102204007B681B68274A93420AD07B681B68264A6E
:10221400934202D14FF480531BE04FF4803318E013
:102224004FF4807315E0102313E0012311E04FF005
:1022340080730EE04FF480130BE04FF4803308E01A
:102244004FF4805305E04FF4807302E0102300E064
:102254000123174A53607B68012283F821207B689D
:10226400002283F820207B685B6B002B03D07B6803
:102274005B6B78689847FB7B18461037BD4680BD7A
:1022840080000240080002401C000240300002406E
:1022940044000240580002406C000240080402401E
:1022A4001C04024030040240440402400004024082
:1022B4000000024080B48BB000AF78603960002326
:1022C4007B6200233B6279E101227B6A02FA03F319
:1022D400FB613B681B68FA691340BB61BA69FB691F
:1022E4009A4240F068813B685B68964A93425ED0AC
:1022F400944A934275D8944A934258D0924A93424E
:102304006FD8924A934252D0904A934269D8904AE5
:1023140093424CD08E4A934263D88E4A934246D01D
:102324008C4A93425DD8122B2AD8122B59D801A279
:1023340052F823F0B32300088D2300089F230008DC
:10234400E1230008E7230008E7230008E723000847
:10235400E7230008E7230008E7230008E723000831
:10236400E7230008E7230008E7230008E723000821
:10237400E7230008E723000895230008A9230008A1
:10238400754A934213D02CE03B68DB683B6229E03A
:102394003B68DB6804333B6224E03B68DB6808335A
:1023A4003B621FE03B68DB680C333B621AE03B682E
:1023B4009B68002B02D104233B6213E03B689B68BB
:1023C400012B05D108233B627B68FA691A6109E095
:1023D40008233B627B68FA695A6103E000233B628D
:1023E40000E000BFBB69FF2B01D87B6801E07B687C
:1023F40004337B61BB69FF2B02D87B6A9B0002E03C
:102404007B6A083B9B003B617B691A680F213B692F
:1024140001FA03F3DB431A40396A3B6901FA03F317
:102424001A437B691A603B685B6803F08053002B96
:1024340000F0C180494B9B69484A43F00103936112
:10244400464B9B6903F00103BB60BB68444A7B6A4B
:102454009B08023352F82330FB607B6A03F00303CA
:102464009B000F2202FA03F3DB43FA681340FB607C
:102474007B683C4A93421FD07B683B4A934219D005
:102484007B683A4A934213D07B68394A93420DD011
:102494007B68384A934207D07B68374A934201D11C
:1024A40005230AE0062308E0042306E0032304E0EE
:1024B400022302E0012300E000237A6A02F003020F
:1024C40092009340FA681343FB6025497B6A9B089A
:1024D4000233FA6841F823203B685B6803F48013F5
:1024E400002B06D0254B9A682449BB6913438B60A3
:1024F40006E0224B9A68BB69DB43204913408B609A
:102504003B685B6803F40013002B06D01B4BDA68AE
:102514001A49BB691343CB6006E0184BDA68BB6900
:10252400DB4316491340CB603B685B6803F400331C
:10253400002B25D0114B5A681049BB6913434B60DB
:1025440025E000BF0000321000003110000022100E
:1025540000002110000012100000111000100240B1
:102564000000014000080140000C0140001001403F
:102574000014014000180140001C01400004014007
:10258400154B5A68BB69DB43134913404B603B68E6
:102594005B6803F48033002B06D00F4B1A680E4996
:1025A400BB6913430B6006E00B4B1A68BB69DB4342
:1025B400094913400B607B6A01337B623B681A68EC
:1025C4007B6A22FA03F3002B7FF47EAE00BF00BFC8
:1025D4002C37BD4680BC70470004014080B489B0EC
:1025E40000AF786039600023FB61A6E00122FB693B
:1025F40002FA03F33A681340BB61BB69002B00F095
:102604009980544AFB699B08023352F823307B615A
:10261400FB6903F003039B000F2202FA03F37A69B8
:1026240013407B617B684C4A93421FD07B684B4AC2
:10263400934219D07B684A4A934213D07B68494A33
:1026440093420DD07B68484A934207D07B68474A3F
:10265400934201D105230AE0062308E0042306E09F
:10266400032304E0022302E0012300E00023FA69CB
:1026740002F00302920093407A699A4232D13C4BB1
:102684001A68BB69DB433A4913400B60384B5A68FC
:10269400BB69DB43364913404B60354BDA68BB6991
:1026A400DB4333491340CB60314B9A68BB69DB434E
:1026B4002F4913408B60FB6903F003039B000F2237
:1026C40002FA03F37B61234AFB699B08023352F845
:1026D40023107B69DA431F48FB699B080A400233D5
:1026E40040F82320BB69FF2B01D87B6801E07B689D
:1026F40004333B61BB69FF2B02D8FB699B0002E0FA
:10270400FB69083B9B00FB603B691A680F21FB686F
:1027140001FA03F3DB431A400421FB6801FA03F3D3
:102724001A433B691A607B68DA68BB69DB431A4069
:102734007B68DA60FB690133FB613A68FB6922FA62
:1027440003F3002B7FF452AF00BF00BF2437BD4614
:1027540080BC70470000014000080140000C0140AB
:10276400001001400014014000180140001C014009
:102774000004014080B483B000AF78600B467B80D6
:1027840013467B707B78002B03D07A887B681A61B0
:1027940003E07B881A047B681A6100BF0C37BD46CE
:1027A40080BC704780B485B000AF78600B467B80F6
:1027B4007B68DB68FB607A88FB6813401A04FB685B
:1027C400D9437B880B401A437B681A6100BF1437D6
:1027D400BD4680BC7047000080B582B000AF0346A0
:1027E400FB80084B5A69FB881340002B06D0054A2E
:1027F400FB885361FB881846FDF794FF00BF083738
:10280400BD4680BD0004014080B586B000AF78604D
:102814007B68002B01D1012372E27B681B6803F003
:102824000103002B00F08780924B5B6803F00C03DC
:10283400042B0CD08F4B5B6803F00C03082B12D1D4
:102844008C4B5B6803F48033B3F5803F0BD1894B29
:102854001B6803F40033002B6CD07B685B68002B8F
:1028640068D101234CE27B685B68B3F5803F06D1F5
:10287400804B1B687F4A43F4803313602EE07B68EF
:102884005B68002B0CD17B4B1B687A4A23F48033A2
:102894001360784B1B68774A23F4802313601DE090
:1028A4007B685B68B3F5A02F0CD1724B1B68714A2F
:1028B40043F4802313606F4B1B686E4A43F48033E8
:1028C40013600BE06B4B1B686A4A23F4803313607C
:1028D400684B1B68674A23F4802313607B685B683A
:1028E400002B13D0FFF788FA386108E0FFF784FA69
:1028F40002463B69D31A642B01D9032300E25D4BE2
:102904001B6803F40033002BF0D014E0FFF774FAD3
:10291400386108E0FFF770FA02463B69D31A642B6A
:1029240001D90323ECE1534B1B6803F40033002B60
:10293400F0D100E000BF7B681B6803F00203002BAA
:1029440063D04C4B5B6803F00C03002B0BD0494B5A
:102954005B6803F00C03082B1CD1464B5B6803F443
:102964008033002B16D1434B1B6803F00203002B6A
:1029740005D07B681B69012B01D00123C0E13D4BCD
:102984001B6823F0F8027B685B69DB003949134359
:102994000B603AE07B681B69002B20D0364B012288
:1029A4001A60FFF729FA386108E0FFF725FA0246B2
:1029B4003B69D31A022B01D90323A1E12D4B1B68D8
:1029C40003F00203002BF0D02A4B1B6823F0F8021B
:1029D4007B685B69DB00274913430B6015E0264BDA
:1029E40000221A60FFF708FA386108E0FFF704FADA
:1029F40002463B69D31A022B01D9032380E11D4B04
:102A04001B6803F00203002BF0D17B681B6803F002
:102A14000803002B3AD07B689B69002B19D0174B15
:102A240001221A60FFF7E8F9386108E0FFF7E4F9DA
:102A340002463B69D31A022B01D9032360E10D4BF3
:102A44005B6A03F00203002BF0D0012000F0FEFAD1
:102A54001CE00A4B00221A60FFF7CEF938610FE040
:102A6400FFF7CAF902463B69D31A022B08D903239C
:102A740046E100BF0010024000004242800442428E
:102A8400924B5B6A03F00203002BE9D17B681B685D
:102A940003F00403002B00F0A6800023FB758B4B8E
:102AA400DB6903F08053002B0DD1884BDB69874A27
:102AB40043F08053D361854BDB6903F08053BB60E3
:102AC400BB680123FB75824B1B6803F48073002BE6
:102AD40018D17F4B1B687E4A43F480731360FFF761
:102AE4008BF9386108E0FFF787F902463B69D31A8E
:102AF400642B01D9032303E1754B1B6803F4807332
:102B0400002BF0D07B68DB68012B06D16F4B1B6A6E
:102B14006E4A43F0010313622DE07B68DB68002BEF
:102B24000CD16A4B1B6A694A23F001031362674B99
:102B34001B6A664A23F0040313621CE07B68DB68AB
:102B4400052B0CD1614B1B6A604A43F004031362EA
:102B54005E4B1B6A5D4A43F0010313620BE05B4B5F
:102B64001B6A5A4A23F001031362584B1B6A574AE3
:102B740023F0040313627B68DB68002B15D0FFF796
:102B84003BF938610AE0FFF737F902463B69D31A8B
:102B940041F28832934201D90323B1E04B4B1B6AC3
:102BA40003F00203002BEED014E0FFF725F938619F
:102BB4000AE0FFF721F902463B69D31A41F2883251
:102BC400934201D903239BE0404B1B6A03F00203A9
:102BD400002BEED1FB7D012B05D13C4BDB693B4A3D
:102BE40023F08053D3617B68DB69002B00F087807E
:102BF400364B5B6803F00C03082B61D07B68DB6900
:102C0400022B46D1334B00221A60FFF7F5F83861E6
:102C140008E0FFF7F1F802463B69D31A022B01D909
:102C240003236DE0294B1B6803F00073002BF0D1E4
:102C34007B681B6AB3F5803F08D1244B5B6823F49F
:102C440000327B689B68214913434B601F4B5B68D0
:102C540023F474127B68196A7B685B6A0B431B4913
:102C640013434B601B4B01221A60FFF7C5F8386110
:102C740008E0FFF7C1F802463B69D31A022B01D9D9
:102C840003233DE0114B1B6803F00073002BF0D0CD
:102C940035E0104B00221A60FFF7AEF8386108E007
:102CA400FFF7AAF802463B69D31A022B01D9032382
:102CB40026E0064B1B6803F00073002BF0D11EE0E6
:102CC4007B68DB69012B07D1012319E00010024066
:102CD40000700040600042420B4B5B68FB60FB6885
:102CE40003F480327B681B6A9A4206D1FB6803F4C2
:102CF40070127B685B6A9A4201D0012300E00023D2
:102D040018461837BD4680BD0010024080B584B017
:102D140000AF786039607B68002B01D10123D0E0DB
:102D24006A4B1B6803F007033A689A4210D9674B51
:102D34001B6823F0070265493B6813430B60634B30
:102D44001B6803F007033A689A4201D00123B8E0F4
:102D54007B681B6803F00203002B20D07B681B6890
:102D640003F00403002B05D0594B5B68584A43F425
:102D7400E06353607B681B6803F00803002B05D0F5
:102D8400534B5B68524A43F460535360504B5B6847
:102D940023F0F0027B689B684D4913434B607B68CA
:102DA4001B6803F00103002B40D07B685B68012B98
:102DB40007D1474B1B6803F40033002B15D10123C3
:102DC4007FE07B685B68022B07D1414B1B6803F0F3
:102DD4000073002B09D1012373E03D4B1B6803F002
:102DE4000203002B01D101236BE0394B5B6823F014
:102DF40003027B685B68364913434B60FEF7FCFFB4
:102E0400F8600AE0FEF7F8FF0246FB68D31A41F2C5
:102E14008832934201D9032353E02D4B5B6803F0BE
:102E24000C027B685B689B009A42EBD1274B1B68C2
:102E340003F007033A689A4210D2244B1B6823F02C
:102E4400070222493B6813430B60204B1B6803F0C5
:102E540007033A689A4201D0012332E07B681B6879
:102E640003F00403002B08D0194B5B6823F4E062E1
:102E74007B68DB68164913434B607B681B6803F06F
:102E84000803002B09D0124B5B6823F460527B6863
:102E94001B69DB000E4913434B6000F021F8024626
:102EA4000B4B5B681B0903F00F030A49CB5C22FA46
:102EB40003F3094A1360094B1B681846FEF770FCBC
:102EC400002318461037BD4680BD00BF00200240D5
:102ED40000100240405C00080400002008000020AC
:102EE40080B487B000AF0023FB600023BB600023E5
:102EF4007B6100237B6000233B611E4B5B68FB60AE
:102F0400FB6803F00C03042B02D0082B03D027E04A
:102F1400194B3B6127E0FB689B0C03F00F03174A36
:102F2400D35C7B60FB6803F48033002B10D0114B1F
:102F34005B685B0C03F00103114AD35CBB607B68E4
:102F44000D4A03FB02F2BB68B2FBF3F37B6104E0BE
:102F54007B680C4A02FB03F37B617B693B6102E003
:102F6400054B3B6100BF3B6918461C37BD4680BC1E
:102F7400704700BF0010024000127A00585C00083D
:102F8400685C000800093D0080B400AF024B1B6878
:102F94001846BD4680BC70470400002080B500AFD1
:102FA400FFF7F2FF0246054B5B681B0A03F00703B9
:102FB4000349CB5C22FA03F3184680BD001002409B
:102FC400505C000880B500AFFFF7DEFF0246054BFA
:102FD4005B68DB0A03F007030349CB5C22FA03F3C3
:102FE400184680BD00100240505C000880B483B0D5
:102FF40000AF786039607B680F221A60114B5B6800
:1030040003F003027B685A600E4B5B6803F0F00226
:103014007B689A600B4B5B6803F4E0627B68DA6060
:10302400084B5B68DB0803F4E0627B681A61064BBB
:103034001B6803F007023B681A6000BF0C37BD46EB
:1030440080BC7047001002400020024080B485B06C
:1030540000AF78600A4B1B680A4AA2FB03235B0A91
:103064007A6802FB03F3FB6000BFFB685A1EFA6038
:10307400002BF9D100BF00BF1437BD4680BC704798
:1030840004000020D34D621080B582B000AF786098
:103094007B68002B01D1012376E07B685B6A002BFF
:1030A40008D17B685B68B3F5827F09D07B68002216
:1030B400DA6105E07B6800221A617B6800225A61AC
:1030C4007B6800229A627B6893F85130DBB2002B54
:1030D40006D17B68002283F850207868FEF73AFA1C
:1030E4007B68022283F851207B681B681A687B681E
:1030F4001B6822F040021A607B685B6803F48272EA
:103104007B689B6803F404431A437B68DB6803F41D
:1031140000631A437B681B6903F002031A437B684C
:103124005B6903F001031A437B689B6903F4007332
:103134001A437B68DB6903F038031A437B681B6A14
:1031440003F0800342EA03017B689B6A03F40052A4
:103154007B681B680A431A607B689B691A0C7B684E
:103164001B6802F004025A607B681B68DA697B689A
:103174001B6822F40062DA617B6800225A657B686E
:10318400012283F85120002318460837BD4680BD2C
:1031940080B588B000AFF860B9603B601346FB802F
:1031A400FEF72AFEF861FB887B83FB6893F85130B5
:1031B400DBB2012B01D002232AE1BB68002B02D031
:1031C400FB88002B01D1012322E1FB6893F85030E6
:1031D400012B01D102231BE1FB68012283F850205B
:1031E400FB68032283F85120FB6800225A65FB68C0
:1031F400BA681A63FB68FA889A86FB68FA88DA86E2
:10320400FB6800229A63FB6800229A87FB6800220D
:10321400DA87FB6800225A64FB6800221A64FB68A0
:103224009B68B3F5004F0FD1FB681B681A68FB68F5
:103234001B6822F040021A60FB681B681A68FB686E
:103244001B6842F480421A60FB681B681B6803F029
:103254004003402B07D0FB681B681A68FB681B6897
:1032640042F040021A60FB68DB68B3F5006F52D18C
:10327400FB685B68002B02D07B8B012B45D1FB687C
:103284001B6B1A88FB681B68DA60FB681B6B9A1C53
:10329400FB681A63FB68DB8E9BB2013B9AB2FB6846
:1032A400DA8632E0FB681B689B6803F00203022B9A
:1032B40012D1FB681B6B1A88FB681B68DA60FB6819
:1032C4001B6B9A1CFB681A63FB68DB8E9BB2013B89
:1032D4009AB2FB68DA8618E0FEF78EFD0246FB69B7
:1032E400D31A3A689A4203D83B68B3F1FF3F02D13C
:1032F4003B68002B09D1FB68012283F85120FB684D
:10330400002283F85020032382E0FB68DB8E9BB20B
:10331400002BC7D153E0FB685B68002B02D07B8B8A
:10332400012B47D1FB681A6BFB681B680C331278BE
:103334001A70FB681B6B5A1CFB681A63FB68DB8EF4
:103344009BB2013B9AB2FB68DA8633E0FB681B68E8
:103354009B6803F00203022B13D1FB681A6BFB6812
:103364001B680C3312781A70FB681B6B5A1CFB68C1
:103374001A63FB68DB8E9BB2013B9AB2FB68DA8668
:1033840018E0FEF739FD0246FB69D31A3A689A42FF
:1033940003D83B68B3F1FF3F02D13B68002B09D14E
:1033A400FB68012283F85120FB68002283F8502037
:1033B40003232DE0FB68DB8E9BB2002BC6D1FA6998
:1033C4003968F86800F0C8FC0346002B02D0FB689B
:1033D40020225A65FB689B68002B0AD100237B617D
:1033E400FB681B68DB687B61FB681B689B687B610F
:1033F4007B69FB68012283F85120FB68002283F873
:103404005020FB685B6D002B01D0012300E00023FA
:1034140018462037BD4680BD80B588B002AFF8603D
:10342400B9603B601346FB80FB6893F85130DBB214
:10343400012B01D0022304E1FB685B68B3F5827FB2
:1034440012D1FB689B68002B0ED1FB68042283F821
:103454005120FA883B6800931346BA68B968F86843
:1034640000F0F3F80346ECE0FEF7C6FC7861BB68B5
:10347400002B02D0FB88002B01D10123E1E0FB6883
:1034840093F85030012B01D10223DAE0FB680122CA
:1034940083F85020FB68042283F85120FB68002243
:1034A4005A65FB68BA689A63FB68FA889A87FB686E
:1034B400FA88DA87FB6800221A63FB6800229A867E
:1034C400FB680022DA86FB6800221A64FB6800228B
:1034D4005A64FB689B68B3F5004F0FD1FB681B6807
:1034E4001A68FB681B6822F040021A60FB681B68BC
:1034F4001A68FB681B6822F480421A60FB681B6828
:103504001B6803F04003402B07D0FB681B681A6854
:10351400FB681B6842F040021A60FB68DB68002B02
:1035240070D135E0FB681B689B6803F00103012B35
:1035340015D1FB681B6803F10C02FB689B6B1278C6
:10354400D2B21A70FB689B6B5A1CFB689A63FB68C7
:10355400DB8F9BB2013B9AB2FB68DA8718E0FEF777
:103564004BFC02467B69D31A3A689A4203D83B68FB
:10357400B3F1FF3F02D13B68002B09D1FB68012264
:1035840083F85120FB68002283F85020032358E07D
:10359400FB68DB8F9BB2002BC4D138E0FB681B684F
:1035A4009B6803F00103012B13D1FB681B68DA68E5
:1035B400FB689B6B92B21A80FB689B6B9A1CFB683E
:1035C4009A63FB68DB8F9BB2013B9AB2FB68DA8794
:1035D40018E0FEF711FC02467B69D31A3A689A4256
:1035E40003D83B68B3F1FF3F02D13B68002B09D1FC
:1035F400FB68012283F85120FB68002283F85020E5
:1036040003231EE0FB68DB8F9BB2002BC6D17A69D3
:103614003968F86800F04EFB0346002B02D0FB68C3
:1036240020225A65FB68012283F85120FB6800229E
:1036340083F85020FB685B6D002B01D0012300E070
:10364400002318461837BD4680BD80B58AB000AF48
:10365400F860B9607A607B8001237B62FEF7CCFB63
:103664003862FB6893F85130FB77FB685B68BB6199
:103674007B88FB82FB7F012B0CD0BB69B3F5827F77
:1036840006D1FB689B68002B02D1FB7F042B01D081
:1036940002237FE1BB68002B05D07B68002B02D09E
:1036A4007B88002B01D1012374E1FB6893F850302F
:1036B400012B01D102236DE1FB68012283F8502024
:1036C400FB6893F85130DBB2042B03D0FB6805226E
:1036D40083F85120FB6800225A65FB687A689A6374
:1036E400FB687A88DA87FB687A889A87FB68BA6805
:1036F4001A63FB687A88DA86FB687A889A86FB689C
:1037040000221A64FB6800225A64FB681B681B6869
:1037140003F04003402B07D0FB681B681A68FB6862
:103724001B6842F040021A60FB68DB68B3F5006F67
:103734007ED1FB685B68002B02D0FB8A012B6CD125
:10374400FB681B6B1A88FB681B68DA60FB681B6BE1
:103754009A1CFB681A63FB68DB8E9BB2013B9AB22E
:10376400FB68DA8659E0FB681B689B6803F0020378
:10377400022B1BD1FB68DB8E9BB2002B16D07B6A1D
:10378400012B13D1FB681B6B1A88FB681B68DA607A
:10379400FB681B6B9A1CFB681A63FB68DB8E9BB28D
:1037A400013B9AB2FB68DA8600237B62FB681B68E4
:1037B4009B6803F00103012B19D1FB68DB8F9BB2DB
:1037C400002B14D0FB681B68DA68FB689B6B92B211
:1037D4001A80FB689B6B9A1CFB689A63FB68DB8FFF
:1037E4009BB2013B9AB2FB68DA8701237B62FEF746
:1037F40003FB02463B6AD31A3A6B9A420DD83B6BE1
:10380400B3F1FF3F09D0FB68012283F85120FB6824
:10381400002283F850200323BCE0FB68DB8E9BB2BC
:10382400002BA0D1FB68DB8F9BB2002B9BD182E0E5
:10383400FB685B68002B02D0FB8A012B71D1FB680B
:103844001A6BFB681B680C3312781A70FB681B6BCD
:103854005A1CFB681A63FB68DB8E9BB2013B9AB26D
:10386400FB68DA865DE0FB681B689B6803F0020373
:10387400022B1CD1FB68DB8E9BB2002B17D07B6A1A
:10388400012B14D1FB681A6BFB681B680C3312788C
:103894001A70FB681B6B5A1CFB681A63FB68DB8E8F
:1038A4009BB2013B9AB2FB68DA8600237B62FB6819
:1038B4001B689B6803F00103012B19D1FB68DB8FA4
:1038C4009BB2002B14D0FB681B68DA68FB689B6B07
:1038D400D2B21A70FB689B6B5A1CFB689A63FB6834
:1038E400DB8F9BB2013B9AB2FB68DA8701237B62D0
:1038F400FEF782FA02463B6AD31A3A6B9A4203D81D
:103904003B6BB3F1FF3F02D13B6B002B09D1FB684A
:10391400012283F85120FB68002283F850200323FE
:1039240038E0FB68DB8E9BB2002B9CD1FB68DB8FFD
:103934009BB2002B97D13A6A396BF86800F00CFA05
:103944000346002B08D0FB6820225A65FB6800223E
:1039540083F8502001231DE0FB689B68002B0AD1EB
:1039640000233B61FB681B68DB683B61FB681B68E9
:103974009B683B613B69FB68012283F85120FB682B
:10398400002283F85020FB685B6D002B01D00123DB
:1039940000E0002318462837BD4680BD80B588B0B6
:1039A40000AF78607B681B685B68FB617B681B68A1
:1039B4009B68BB61BB699B0903F00103002B0FD11A
:1039C400BB6903F00103002B0AD0FB699B0903F0D8
:1039D4000103002B04D07B681B6C78689847BEE019
:1039E400BB695B0803F00103002B0AD0FB69DB0908
:1039F40003F00103002B04D07B685B6C7868984764
:103A0400ADE0BB695B0903F00103002B06D1BB6980
:103A14009B0903F00103002B00F0A180FB695B0903
:103A240003F00103002B00F09A80BB699B0903F0AB
:103A34000103002B23D07B6893F85130DBB2032BB6
:103A440011D07B685B6D43F004027B685A650023E8
:103A54007B617B681B68DB687B617B681B689B6898
:103A64007B617B690BE000233B617B681B68DB683F
:103A74003B617B681B689B683B613B696FE0BB698A
:103A84005B0903F00103002B14D07B685B6D43F0EA
:103A940001027B685A650023FB607B681B689B6896
:103AA400FB607B681B681A687B681B6822F0400215
:103AB4001A60FB687B685B6D002B4FD07B681B68CA
:103AC4005A687B681B6822F0E0025A607B68012216
:103AD40083F85120FB6903F00203002B04D1FB6936
:103AE40003F00103002B34D07B681B685A687B68A1
:103AF4001B6822F003025A607B68DB6C002B11D038
:103B04007B68DB6C174A5A637B68DB6C1846FEF7EC
:103B1400C9FA0346002B05D07B685B6D43F0400275
:103B24007B685A657B689B6C002B16D07B689B6C0A
:103B34000C4A5A637B689B6C1846FEF7B3FA03463B
:103B4400002B0AD07B685B6D43F040027B685A65AA
:103B540003E0786800F008F800E000BF00BF2037F9
:103B6400BD4680BD7F3B000880B483B000AF786061
:103B740000BF0C37BD4680BC704780B584B000AF31
:103B840078607B685B6AFB60FB680022DA87FB680D
:103B94000022DA86F868FFF7E7FF00BF1037BD465A
:103BA40080BD000080B588B000AFF860B9603B60AC
:103BB4001346FB71FEF720F90246BB6A9B1A3A686A
:103BC4001344FB61FEF718F9B861394B1B685B01BC
:103BD4001B0DFA6902FB03F37B6154E03B68B3F10C
:103BE400FF3F50D0FEF708F90246BB69D31AFA69C1
:103BF4009A4202D9FB69002B3DD1FB681B685A68C5
:103C0400FB681B6822F0E0025A60FB685B68B3F54E
:103C1400827F11D1FB689B68B3F5004F04D0FB6829
:103C24009B68B3F5806F07D1FB681B681A68FB6853
:103C34001B6822F040021A60FB689B6AB3F5005FC0
:103C44000FD1FB681B681A68FB681B6822F40052DA
:103C54001A60FB681B681A68FB681B6842F4005210
:103C64001A60FB68012283F85120FB68002283F864
:103C74005020032317E07B69002B01D10023FB6153
:103C84007B69013B7B61FB681B689A68BB681340D6
:103C9400BA689A420CBF01230023DBB21A46FB79AF
:103CA4009A429BD1002318462037BD4680BD00BFF1
:103CB4000400002080B586B002AFF860B9607A6075
:103CC400FB685B68B3F5827F11D1FB689B68B3F531
:103CD400004F04D0FB689B68B3F5806F07D1FB6885
:103CE4001B681A68FB681B6822F040021A60FB68B4
:103CF4005B68B3F5827F17D1FB689B68B3F5806F6F
:103D040012D17B680093BB6800220121F868FFF799
:103D140049FF0346002B1AD0FB685B6D43F0200279
:103D2400FB685A65032313E07B680093BB68002299
:103D34008021F868FFF736FF0346002B07D0FB68A5
:103D44005B6D43F02002FB685A65032300E0002307
:103D540018461037BD4680BD80B586B002AFF86006
:103D6400B9607A607B680093BB6801220221F8681D
:103D7400FFF718FF0346002B07D0FB685B6D43F089
:103D84002002FB685A65032313E07B680093BB6839
:103D940000228021F868FFF705FF0346002B07D0B7
:103DA400FB685B6D43F02002FB685A65032300E067
:103DB400002318461037BD4680BD80B582B000AFE1
:103DC40078607B68002B01D1012341E07B6893F884
:103DD4003D30DBB2002B06D17B68002283F83C2007
:103DE4007868FDF701FC7B68022283F83D207B683C
:103DF4001A687B6804331946104600F0A1F97B6801
:103E0400012283F846207B68012283F83E207B68E8
:103E1400012283F83F207B68012283F840207B68DD
:103E2400012283F841207B68012283F842207B68C9
:103E3400012283F843207B68012283F844207B68B5
:103E4400012283F845207B68012283F83D2000236A
:103E540018460837BD4680BD80B485B000AF786091
:103E64007B6893F83D30DBB2012B01D0012344E0A1
:103E74007B68022283F83D207B681B68DA687B68D4
:103E84001B6842F00102DA607B681B681D4A93429A
:103E940018D07B681B681C4A934213D07B681B684C
:103EA400B3F1804F0ED07B681B68184A934209D047
:103EB4007B681B68164A934204D07B681B68154ACA
:103EC400934211D17B681B689B6803F00703FB6076
:103ED400FB68062B10D07B681B681A687B681B681C
:103EE40042F001021A6007E07B681B681A687B686D
:103EF4001B6842F001021A60002318461437BD46BD
:103F040080BC7047002C0140003401400004004094
:103F140000080040000C004080B584B000AF786019
:103F24007B681B68DB68FB607B681B681B69BB6084
:103F3400BB6803F00203002B20D0FB6803F00203EC
:103F4400002B1BD07B681B686FF002021A617B6830
:103F540001221A777B681B689B6903F00303002B1B
:103F640003D0786800F0D1F805E0786800F0C4F870
:103F7400786800F0D3F87B6800221A77BB6803F0F6
:103F84000403002B20D0FB6803F00403002B1BD098
:103F94007B681B686FF004021A617B6802221A773F
:103FA4007B681B689B6903F44073002B03D078681B
:103FB40000F0ABF805E0786800F09EF8786800F04F
:103FC400ADF87B6800221A77BB6803F00803002B66
:103FD40020D0FB6803F00803002B1BD07B681B6810
:103FE4006FF008021A617B6804221A777B681B68E9
:103FF400DB6903F00303002B03D0786800F085F835
:1040040005E0786800F078F8786800F087F87B6855
:1040140000221A77BB6803F01003002B20D0FB6842
:1040240003F01003002B1BD07B681B686FF0100299
:104034001A617B6808221A777B681B68DB6903F4C2
:104044004073002B03D0786800F05FF805E07868CF
:1040540000F052F8786800F061F87B6800221A7763
:10406400BB6803F00103002B0CD0FB6803F00103D1
:10407400002B07D07B681B686FF001021A61786817
:10408400FCF796FABB6803F08003002B0CD0FB68A6
:1040940003F08003002B07D07B681B686FF080025D
:1040A4001A61786800F047F9BB6803F04003002BFD
:1040B4000CD0FB6803F04003002B07D07B681B681F
:1040C4006FF040021A61786800F031F8BB6803F0C1
:1040D4002003002B0CD0FB6803F02003002B07D037
:1040E4007B681B686FF020021A61786800F01AF987
:1040F40000BF1037BD4680BD80B483B000AF786088
:1041040000BF0C37BD4680BC704780B483B000AF9D
:10411400786000BF0C37BD4680BC704780B483B064
:1041240000AF786000BF0C37BD4680BC704780B4D8
:1041340083B000AF786000BF0C37BD4680BC7047C9
:1041440080B485B000AF786039607B681B68FB6021
:104154007B68394A934213D07B68384A93420FD024
:104164007B68B3F1804F0BD07B68354A934207D00C
:104174007B68344A934203D07B68334A934208D124
:10418400FB6823F07003FB603B685B68FA681343C9
:10419400FB607B68284A934213D07B68274A93428A
:1041A4000FD07B68B3F1804F0BD07B68244A9342D5
:1041B40007D07B68234A934203D07B68224A934208
:1041C40008D1FB6823F44073FB603B68DB68FA6842
:1041D4001343FB60FB6823F080023B685B69134375
:1041E400FB607B68FA681A603B689A687B68DA62ED
:1041F4003B681A687B689A627B680F4A934203D0D3
:104204007B680E4A934203D13B681A697B681A6340
:104214007B6801225A617B681B6903F00103002B50
:1042240005D07B681B6923F001027B681A6100BF1B
:104234001437BD4680BC7047002C01400034014057
:104244000004004000080040000C004080B485B029
:1042540000AF786039607B6893F83C30012B01D162
:10426400022350E07B68012283F83C207B68022211
:1042740083F83D207B681B685B68FB607B681B6878
:104284009B68BB60FB6823F07003FB603B681B68A2
:10429400FA681343FB607B681B68FA685A607B68A2
:1042A4001B681B4A934218D07B681B68194A9342C7
:1042B40013D07B681B68B3F1804F0ED07B681B68FA
:1042C400154A934209D07B681B68144A934204D070
:1042D4007B681B68124A93420CD1BB6823F08003AD
:1042E400BB603B685B68BA681343BB607B681B6850
:1042F400BA689A607B68012283F83D207B680022BB
:1043040083F83C20002318461437BD4680BC704710
:10431400002C01400034014000040040000800402B
:10432400000C004080B483B000AF786000BF0C374D
:10433400BD4680BC704780B483B000AF786000BFD6
:104344000C37BD4680BC704780B582B000AF786042
:104354007B68002B01D1012342E07B6893F8413054
:10436400DBB2002B06D17B68002283F840207868FA
:10437400FDF758F97B68242283F841207B681B6889
:10438400DA687B681B6822F40052DA60786800F00F
:104394000FFD7B681B681A697B681B6822F49042D6
:1043A4001A617B681B685A697B681B6822F02A02C1
:1043B4005A617B681B68DA687B681B6842F40052A8
:1043C400DA607B6800225A647B68202283F84120EB
:1043D4007B68202283F842207B6800225A630023F2
:1043E40018460837BD4680BD80B582B000AF7860FE
:1043F4007B68002B01D1012324E07B68242283F80D
:1044040041207B681B68DA687B681B6822F40052D1
:10441400DA607868FDF78EF97B6800225A647B685D
:10442400002283F841207B68002283F842207B68C5
:1044340000221A637B6800225A637B68002283F897
:104444004020002318460837BD4680BD80B584B09F
:1044540000AFF860B9601346FB80FB6893F8423004
:10446400DBB2202B12D1BB68002B02D0FB88002BBF
:1044740001D101230BE0FB6800221A63FB881A4672
:10448400B968F86800F0C0FA034600E00223184651
:104494001037BD4680BD000080B5BAB000AF78606B
:1044A4007B681B681B68C7F8E4307B681B68DB68A3
:1044B400C7F8E0307B681B685B69C7F8DC30002311
:1044C400C7F8D8300023C7F8D430D7F8E43003F065
:1044D4000F03C7F8D830D7F8D830002B0FD1D7F84E
:1044E400E43003F02003002B09D0D7F8E03003F0C8
:1044F4002003002B03D0786800F09CFB5BE2D7F824
:10450400D830002B00F0DE80D7F8DC3003F0010354
:10451400002B06D1D7F8E03003F49073002B00F0A1
:10452400D180D7F8E43003F00103002B0BD0D7F887
:10453400E03003F48073002B05D07B685B6C43F0A0
:1045440001027B685A64D7F8E43003F00403002BBB
:104554000BD0D7F8DC3003F00103002B05D07B68C7
:104564005B6C43F002027B685A64D7F8E43003F0D2
:104574000203002B0BD0D7F8DC3003F00103002B2F
:1045840005D07B685B6C43F004027B685A64D7F8FF
:10459400E43003F00803002B11D0D7F8E03003F027
:1045A4002003002B05D1D7F8DC3003F00103002BE6
:1045B40005D07B685B6C43F008027B685A647B68B7
:1045C4005B6C002B00F0F281D7F8E43003F0200399
:1045D400002B08D0D7F8E03003F02003002B02D0E2
:1045E400786800F027FB7B681B685B6903F0400375
:1045F400002B14BF01230023DBB2C7F8D4307B683F
:104604005B6C03F00803002B03D1D7F8D430002BE4
:104614004FD0786800F031FA7B681B685B6903F05F
:104624004003002B41D07B681B681433C7F89C30CF
:10463400D7F89C3053E8003FC7F89830D7F8983043
:1046440023F04003C7F8D0307B681B681433D7F8D5
:10465400D020C7F8A820C7F8A430D7F8A410D7F8FA
:10466400A82041E80023C7F8A030D7F8A030002BD9
:10467400D9D17B68DB6B002B13D07B68DB6B7E4A64
:104684005A637B68DB6B1846FDF70CFD0346002B71
:1046940016D07B68DB6B5B6B7A68D26B10469847ED
:1046A4000EE0786800F09CF90AE0786800F098F968
:1046B40006E0786800F094F97B6800225A6475E19A
:1046C40000BF73E17B681B6B012B40F04F81D7F86F
:1046D400E43003F01003002B00F04881D7F8E030F9
:1046E40003F01003002B00F041810023BB607B68C2
:1046F4001B681B68BB607B681B685B68BB60BB682E
:104704007B681B685B6903F04003002B00F0B680F4
:104714007B68DB6B1B685B68A7F8BE30B7F8BE30FC
:10472400002B00F045817B689B8DB7F8BE209A4230
:1047340080F03E817B68B7F8BE20DA857B68DB6B4E
:104744009B69202B00F088807B681B680C33C7F8BA
:104754008830D7F8883053E8003FC7F88430D7F85A
:10476400843023F48073C7F8B8307B681B680C333B
:10477400D7F8B820C7F89420C7F89030D7F890102D
:10478400D7F8942041E80023C7F88C30D7F88C3050
:10479400002BD9D17B681B6814337B677B6F53E88C
:1047A400003F3B673B6F23F00103C7F8B4307B68DD
:1047B4001B681433D7F8B420C7F88020FB67F96F5F
:1047C400D7F8802041E80023BB67BB6F002BE1D101
:1047D4007B681B6814333B663B6E53E8003FFB6504
:1047E400FB6D23F04003C7F8B0307B681B681433BB
:1047F400D7F8B020FA66BB66B96EFA6E41E80023BA
:104804007B667B6E002BE3D17B68202283F84220F9
:104814007B6800221A637B681B680C33FB64FB6CA7
:1048240053E8003FBB64BB6C23F01003C7F8AC3003
:104834007B681B680C33D7F8AC20BA657B65796D4F
:10484400BA6D41E800233B653B6D002BE3D17B68E7
:10485400DB6B1846FDF7EBFB7B6802225A637B682F
:104864009A8D7B68DB8D9BB2D31A9BB2194678680C
:1048740000F0BFF89CE000BF434B00087B689A8DB2
:104884007B68DB8D9BB2D31AA7F8CE307B68DB8DB7
:104894009BB2002B00F08E80B7F8CE30002B00F0D6
:1048A40089807B681B680C33BB63BB6B53E8003F98
:1048B4007B637B6B23F49073C7F8C8307B681B68F9
:1048C4000C33D7F8C8207A643B64396C7A6C41E8BD
:1048D4000023FB63FB6B002BE3D17B681B68143361
:1048E4007B627B6A53E8003F3B623B6A23F001032F
:1048F400C7F8C4307B681B681433D7F8C4203A6304
:10490400FB62F96A3A6B41E80023BB62BB6A002B85
:10491400E3D17B68202283F842207B6800221A635B
:104924007B681B680C333B613B6953E8003FFB60C9
:10493400FB6823F01003C7F8C0307B681B680C3396
:10494400D7F8C020FA61BB61B969FA6941E800236C
:104954007B617B69002BE3D17B6802225A63B7F841
:10496400CE301946786800F044F823E0D7F8E430F4
:1049740003F08003002B09D0D7F8E03003F0800364
:10498400002B03D0786800F0EEF814E0D7F8E43098
:1049940003F04003002B0ED0D7F8E03003F04003BF
:1049A400002B08D0786800F02DF904E000BF02E085
:1049B40000BF00E000BFE837BD4680BD80B483B0CF
:1049C40000AF786000BF0C37BD4680BC704780B430
:1049D40083B000AF786000BF0C37BD4680BC704721
:1049E40080B483B000AF786000BF0C37BD4680BC94
:1049F400704780B483B000AF78600B467B8000BF03
:104A04000C37BD4680BC704780B485B000AFF860F9
:104A1400B9601346FB80FB68BA689A62FB68FA883F
:104A24009A85FB68FA88DA85FB6800225A64FB6879
:104A3400222283F84220FB681B69002B07D0FB6805
:104A44001B68DA68FB681B6842F48072DA60FB68F2
:104A54001B685A69FB681B6842F001025A61FB68D3
:104A64001B68DA68FB681B6842F02002DA600023E6
:104A740018461437BD4680BC704780B495B000AF6B
:104A840078607B681B680C337B637B6B53E8003F67
:104A94003B633B6B23F49073FB647B681B680C33B0
:104AA400FA6C3A64FB63F96B3A6C41E80023BB632C
:104AB400BB6B002BE5D17B681B6814333B623B6AFC
:104AC40053E8003FFB61FB6923F00103BB647B688F
:104AD4001B681433BA6CFA62BB62B96AFA6A41E8B9
:104AE40000237B627B6A002BE5D17B681B6B012B67
:104AF40019D17B681B680C33FB60FB6853E8003FEB
:104B0400BB60BB6823F010037B647B681B680C33B9
:104B14007A6CBA617B617969BA6941E800233B61C7
:104B24003B69002BE5D17B68202283F842207B6817
:104B340000221A6300BF5437BD4680BC704780B55D
:104B440084B000AF78607B685B6AFB60FB6800221E
:104B5400DA85FB680022DA84F868FFF741FF00BFBA
:104B64001037BD4680BD80B485B000AF78607B68E7
:104B740093F84130DBB2212B3ED17B689B68B3F5BF
:104B8400805F14D17B681B69002B10D17B681B6A82
:104B9400FB60FB681B881A467B681B68C2F308022B
:104BA4005A607B681B6A9A1C7B681A6208E07B68FF
:104BB4001B6A591C7A6811621A787B681B685A60F0
:104BC4007B68DB8C9BB2013B9BB27A681946D1842B
:104BD400002B0FD17B681B68DA687B681B6822F0A6
:104BE4008002DA607B681B68DA687B681B6842F0C5
:104BF4004002DA60002300E0022318461437BD4661
:104C040080BC704780B582B000AF78607B681B6859
:104C1400DA687B681B6822F04002DA607B68202235
:104C240083F841207868FFF7C9FE00231846083747
:104C3400BD4680BD80B58CB000AF78607B6893F8CA
:104C44004230DBB2222B40F0AE807B689B68B3F528
:104C5400805F17D17B681B69002B13D10023FB6293
:104C64007B689B6ABB627B681B685B689BB2C3F30F
:104C740008039AB2BB6A1A807B689B6A9A1C7B6899
:104C84009A6226E07B689B6AFB620023BB627B68B6
:104C94009B68B3F5805F07D07B689B68002B0AD1C3
:104CA4007B681B69002B06D17B681B685B68DAB2E2
:104CB400FB6A1A7008E07B681B685B68DBB203F070
:104CC4007F03DAB2FB6A1A707B689B6A5A1C7B68A2
:104CD4009A627B68DB8D9BB2013B9BB27A68194672
:104CE400D185002B5DD17B681B68DA687B681B6803
:104CF40022F02002DA607B681B68DA687B681B6834
:104D040022F48072DA607B681B685A697B681B68CE
:104D140022F001025A617B68202283F842207B68DA
:104D240000225A637B681B6B012B35D17B68002200
:104D34001A637B681B680C337B617B6953E8003F13
:104D44003B613B6923F010037B627B681B680C3377
:104D54007A6A3A62FB61F9693A6A41E80023BB6105
:104D6400BB69002BE5D17B681B681B6803F010034B
:104D7400102B0AD10023FB607B681B681B68FB6057
:104D84007B681B685B68FB60FB687B689B8D1946CE
:104D94007868FFF72EFE02E07868FFF718FE00231C
:104DA40002E0002300E0022318463037BD4680BDF0
:104DB40080B584B000AF78607B681B681B6923F4FE
:104DC40040517B68DA687B681B680A431A617B6818
:104DD4009A687B681B691A437B685B691343BB60F1
:104DE4007B681B68DB6823F4B05323F00C037A68F8
:104DF4001268B9680B43D3607B681B685B6923F452
:104E040040717B689A697B681B680A435A617B68B6
:104E14001B682C4A934203D1FEF7D4F8F86002E0F1
:104E2400FEF7BCF8F860FA6813469B0013449A0036
:104E34001A447B685B689B00B2FBF3F3224AA2FB33
:104E440003235B091901FA6813469B0013449A0073
:104E54001A447B685B689B00B2FBF3F21A4BA3FB1A
:104E640002035B09642000FB03F3D31A1B013233F2
:104E7400154AA2FB03235B0903F0F0031944FA6803
:104E840013469B0013449A001A447B685B689B009A
:104E9400B2FBF3F20C4BA3FB02035B09642000FB9F
:104EA40003F3D31A1B013233074AA2FB03235B0922
:104EB40003F00F027B681B680A449A6000BF103736
:104EC400BD4680BD003801401F85EB5100F00AB893
:104ED400024B1868BFF35B8F704700BF440A002081
:104EE40000F002B800F022B800F000B8012838BF82
:104EF400012010B50446204600F010F800B110BDA2
:104F0400FFF7E6FF08B900F002F88047F3E7062050
:104F140008B500F011F90120FCF737FD024B0146FA
:104F2400186800F02DB800BF10000020024B0146A5
:104F3400186800F059B900BF1000002070B50F4E7A
:104F44000C463168054611B900F012F9306021466B
:104F5400284600F00DF9431C03D14FF0FF342046DE
:104F640070BDC41C24F00304A042F8D0211A2846C2
:104F740000F0FEF80130F2D1EFE700BF480A00204C
:104F84002DE9F843CD1C25F0030508350C2D38BF59
:104F94000C25002D064601DBA94204D90C233360FD
:104FA4000020BDE8F883DFF8D48000F069F8D8F871
:104FB40000301C4644BB29463046FFF7BFFF431C64
:104FC400044658D1D8F800402746002F43D1002C7E
:104FD4004BD023683946304604EB030900F0C8F887
:104FE400814542D1216830466D1A2946FFF7A6FF54
:104FF40001303AD023682B442360D8F800305A6833
:1050040062BBC8F800700FE02268521B20D40B2A40
:1050140017D96119A342256018BF5960636808BF96
:10502400C8F8001062514B60304600F02FF804F1CC
:105034000B00231D20F00700C21A1CBF1B1AA3502B
:10504400AFE76268A3420CBFC8F800205A60EBE7E0
:1050540023466468AEE73C467F68B6E71A465B6859
:10506400A342FBD100235360DEE70C2330463360B8
:1050740000F00CF894E70560D6E700BF4C0A002066
:10508400014800F0AFB800BF8C0B0020014800F0CD
:10509400AAB800BF8C0B002010B59AB000910491FF
:1050A4006FF0004100240591029105491994039180
:1050B400694600F03DF9009B1C701AB010BD00BF9A
:1050C4000802FFFF13460A46014602480068FFF73C
:1050D400E3BF00BF1000002003460244934200D106
:1050E400704703F8011BF9E71F2938B505460C463C
:1050F40004D9162303604FF0FF3038BDC26B12B1E0
:1051040052F821304BB9284600F030F822460146C7
:105114002846BDE8384000F017B8012B0AD0591CC6
:1051240003D1162303600120E7E70021204642F85B
:10513400241098470020E0E7024B01461868FFF767
:10514400D3BF00BF1000002038B50023064D04462D
:10515400084611462B60FCF708FC431C02D12B685F
:1051640003B1236038BD00BF880B0020FCF7F6BBF9
:1051740038B50023054D044608462B60FCF710FCA7
:10518400431C02D12B6803B1236038BD880B002077
:10519400014B1868704700BF1000002070B500264E
:1051A4000C4D0D4C641BA410A64209D100F0B8FBB1
:1051B40000260A4D0A4C641BA410A64205D170BDFA
:1051C40055F8043B98470136EEE755F8043B9847F9
:1051D4000136F2E7A85C0008A85C0008A85C000897
:1051E400B05C00087047704738B50546002940D0C8
:1051F40051F8043C0C1F002BB8BFE418FFF740FF24
:105204001C4A136833B9636014602846BDE838400B
:10521400FFF73CBFA34208D9206821188B4201BF85
:1052240019685B6809182160EDE71A465B680BB1E1
:10523400A342FAD911685018A0420BD12068014446
:10524400501883421160E0D118685B68084410600C
:105254005360DAE702D90C232B60D6E720682118C3
:105264008B4201BF19685B68091821606360546050
:10527400CBE738BD4C0A00202DE9F0471F468E6865
:105284008246BE420C4690460B682DD8B1F90C20DC
:1052940012F4906F26D06569096905EB4505A3EB07
:1052A400010905EBD5757B1C4B446D109D4238BF3D
:1052B4001D46530527D52946FFF762FE064660B30F
:1052C4004A46216900F0E8FAA38923F4906343F085
:1052D4008003A38126614E4426603E466561A5EBAA
:1052E4000905A560BE4200D93E46324641462068C3
:1052F40000F0AAFA0020A3689B1BA3602368334430
:105304002360BDE8F0872A4600F0D4FA0646002858
:10531400E0D150462169FFF767FF0C23CAF800303B
:10532400A3894FF0FF3043F04003A381E9E7000075
:105334002DE9F04F98468B8907461B060D46144607
:105344009DB010D50B6973B94021FFF719FE286091
:10535400286130B90C233B604FF0FF301DB0BDE82D
:10536400F08F40236B610023099320238DF82930AB
:1053740030234FF00109CDF80C80DFF898818DF8C7
:105384002A3023469A4613F8012B0AB1252AF9D16B
:10539400BAEB040B0BD05B46224629463846FFF78E
:1053A4006BFF013000F0A780099A5A4409929AF8D9
:1053B4000030002B00F09F8000234FF0FF32CDE936
:1053C40005230AF1010A049307938DF853301A93C5
:1053D4005446052214F8011B4E4800F04FFA049A73
:1053E400D8B9D00644BF20238DF85330110744BFE9
:1053F4002B238DF853309AF800302A2B15D05446BD
:1054040000204FF00A0C079A214611F8013B303B6B
:10541400092B4BD9B0B1079214E0A0EB080309FAA9
:1054240003F31343A2460493D2E7039B191D1B689D
:105434000391002BBBBF5B4242F002020793079328
:10544400B8BF049223782E2B0AD163782A2B32D149
:10545400039B02341A1D1B68039243EAE37305930A
:10546400DFF8B4A003225046217800F007FA38B1DF
:105474004022049BA0EB0A008240134301340493AE
:1054840014F8011B062225488DF8281000F0F6F9BF
:10549400002836D0224B1BBB039B073323F00703A2
:1054A40008330393099B334409936AE70C460120AC
:1054B4000CFB0232A8E700234FF00A0C1946013412
:1054C4000593204610F8012B303A092A03D9002B02
:1054D400C6D00591C4E7044601230CFB0121F0E783
:1054E40003AB00932A4638460E4B04A9AFF3008061
:1054F400421C0646D6D1AB895B063FF52DAF099811
:105504002CE703AB00932A463846064B04A900F067
:105514007DF8EDE76B5C0008715C0008755C0008C1
:10552400000000007D5200082DE9F0471646984619
:105534008A680B6907469342B8BF1346336091F8F3
:1055440043200C46DDF820900AB101333360236810
:10555400990642BF336802333360256815F00605A7
:1055640006D104F1190AE36832689B1AAB422BDCBA
:1055740094F843302268003B18BF0123920630D4CC
:105584004146384604F14302C847013023D023681A
:10559400226903F00603042B14BF002533684FF07F
:1055A400000608BFE56804F11A0408BFED1A54F8B0
:1055B400123C08BF25EAE5759342C4BF9B1AED1857
:1055C400B5421AD1002008E001235246414638462C
:1055D400C847013003D14FF0FF30BDE8F0870135F3
:1055E400C1E73020E11881F843005A1C94F84510B3
:1055F4002244023382F84310C2E701232246414683
:105604003846C8470130E6D00136D9E72DE9FF47CF
:105614000F7E9146782F80460C469A460C9E01F1E7
:10562400430207D8622F0AD8002F00F0D180582FE8
:1056340000F0B88004F1420684F842703AE0A7F121
:105644006303152BF6D801A151F823F0A9560008DD
:10565400BD56000839560008395600083956000866
:1056640039560008BD560008395600083956000856
:105674003956000839560008BB570008E756000899
:10568400755700083956000839560008DD570008D8
:1056940039560008E75600083956000839560008FC
:1056A4007D57000833681A1D1B68326004F14206F6
:1056B40084F8423001239CE033682068191D31606E
:1056C400060601D51D6803E04506FBD5B3F9005075
:1056D400002D03DA2D236D4284F843300A23584801
:1056E40011E021683368080653F8045B02D44906C4
:1056F40048BFADB26F2F336014BF0A23082350484C
:10570400002184F843106668002EA66005DB21683A
:105714002E4321F0040121604BD01646B5FBF3F172
:1057240003FB1157C75D06F8017D2F46BB420D46AA
:10573400F4D9082B0BD12368DF0708D523696168E6
:105744009942DEBF302306F8013C06F1FF36921B76
:1057540022614B4621464046CDF800A003AAFFF73C
:10576400E3FE01304AD14FF0FF3004B0BDE8F087CA
:10577400236843F0200323607827324884F8457077
:10578400236831681F0651F8045B02D45F0648BFE2
:10579400ADB23160D90744BF43F0200323601DB18B
:1057A4001023ADE72648E9E7236823F020032360AC
:1057B400F6E71646BDE733682568181D6169306051
:1057C4002E061B6801D5196002E06806FBD5198016
:1057D400002316462361BCE7336800211A1D32609A
:1057E4001E686268304600F049F808B1801B6060AA
:1057F40063682361002384F84330AAE732464946AC
:1058040040462369D0470130ADD023689B0713D4A9
:10581400E068039B9842B8BF1846A6E701233246C6
:1058240049464046D04701309DD00135E36803998D
:105834005B1AAB42F2DCEBE7002504F11906F5E74D
:105844007C5C00088D5C0008884210B501EB020402
:1058540002D98442234607D8431EA14208D011F836
:10586400012B03F8012FF8E7014602448A4200D1D4
:1058740010BD13F8014D02F8014DF7E7034610B5CA
:10588400C9B202449342184601D1002003E00478CF
:1058940001338C42F6D110BD0A44914200F1FF332A
:1058A40000D1704710B511F8014B914203F8014F34
:1058B400F9D110BD2DE9F041074614460D4621B932
:1058C4001146BDE8F041FFF75BBB2AB9FFF78CFC3A
:1058D40025462846BDE8F08100F01AF884420646C1
:1058E40002D8B4EB500FF4D821463846FFF748FBF2
:1058F400804608B94546ECE7B4422246294628BF0B
:105904003246FFF7C9FF29463846FFF76DFCF1E739
:1059140051F8043C181F002BBCBF0B58C01870472B
:10592400F8B500BFF8BC08BC9E467047F8B500BF88
:08593400F8BC08BC9E46704758
:10593C000D0A0D0A0000000048414C5F4F4B00005F
:10594C0048414C5F4552524F5200000048414C5F59
:10595C00425553590000000048414C5F54494D4595
:10596C004F5554006E524632344C30313A206372EB
:10597C0065617465640D0A00747275652000000021
:10598C0066616C73650000006E524632344C3031E7
:10599C003A2053657443452020202020202D205B85
:1059AC00202573205D0D0A006E524632344C303186
:1059BC003A20426567696E0D0A0000006E5246324D
:1059CC00344C30313A20456E640D0A006E5246322A
:1059DC00344C30313A20496E69740D0A00000000D5
:1059EC006E524632344C30313A20496E7370202D51
:1059FC00203078253032580D0A0000006E524632A5
:105A0C00344C30313A20506F7765724F6E4F66666A
:105A1C00202D205B202573205D0D0A006E5246322E
:105A2C00344C30313A20416363657373526567209F
:105A3C00202D205B202573205D202D206572726F38
:105A4C0072202D2048414C5F5350495F5472616E57
:105A5C00736D69745265636569766528290D0A0052
:105A6C007265616420000000777269746500000043
:105A7C006E524632344C30313A2041636365737355
:105A8C0052656720202D2074797065205B2025736A
:105A9C00205D202D20726567205B20307825303208
:105AAC0058205D202D2076616C5B203078253032BB
:105ABC0058205D0D0A0000006E524632344C3031D5
:105ACC003A2041636365737352656720202D205B18
